:100000000C94E9000C94A6050C947F050C945805FB
:100010000C9431050C9411010C9411010C940A05F7
:100020000C9411010C9479100C94CD050C943F069E
:100030000C9411010C9411010C9411010C941101F8
:100040000C9411010C9411010C9411010C941101E8
:100050000C9411010C9411010C9411010C94CB120D
:100060000C9411010C94A3080C947D080C941101BC
:100070000C9411010C9411010C9411010C941101B8
:100080000C9411010C9411010C9411010C941101A8
:100090000C94E0080C9411010C9411010C941101C2
:1000A0000C9411010C9411010C94110110121312F3
:1000B000021206120A1234123412341217121B12D0
:1000C0001F122512291234122F12080B00020202ED
:1000D00001000904000001020200000524001001D3
:1000E0000524010101042402060524060001070578
:1000F000810310004009040100020A000000070506
:1001000002024000000705830240000004030904C6
:1001100012010002EF02014041233680000101027A
:10012000030141726475696E6F204C4C430041724B
:100130006475696E6F204C656F6E6172646F002A22
:10014000004750524D430000000000240027002AC1
:10015000002D0030000000000200090F0000030421
:1001600001000C0000000000000000000000000082
:100170000000000000000000250028002B002E00D9
:100180003100000000002300260029002C002F0071
:10019000040404040403040502020202040302022C
:1001A000020206060606060604040202020404040D
:1001B0000802011040804010204080408008020466
:1001C0000180402010020110801020404020101CAF
:1001D000DB1B11241FBECFEFDAE0DEBFCDBF11E085
:1001E000A0E0B1E0E2EEF6E402C005900D92AA377D
:1001F000B107D9F725E0AAE7B1E001C01D92AB3CF9
:10020000B207E1F710E0C8EED0E004C02197FE018C
:100210000E944D20C73ED107C9F70E943B130C94A2
:1002200064230C94000008954091E3015091E4018F
:100230002091E1013091E20142175307B4F490910B
:10024000E8009570E1F39091E80092FD19C0809369
:10025000F1008091E3019091E40101968F73992759
:10026000892B19F48EEF8093E8008091E30190913F
:10027000E40101969093E4018093E30181E0089505
:1002800080E00895DF92EF92FF920F931F93CF9338
:10029000DF93D82EF92EE42E062F10E0C801019628
:1002A000880F0E94140183E00E941401CD2DDF2DE0
:1002B0000C0F1D1FC017D10789F0E7FE03C0FE0118
:1002C000849101C088810E941401F82E80E00E9470
:1002D00014018F2121968111EDCF01C081E0DF91C2
:1002E000CF911F910F91FF90EF90DF900895DF92D3
:1002F000EF92FF920F931F93CF93DF93D82E8A0133
:100300007B01E40EF51EEB01CE15DF0571F0D7FE83
:1003100003C0FE01849101C088810E9414012196CE
:100320008111F2CF8FEF9FEF01C0C801DF91CF9114
:100330001F910F91FF90EF90DF900895615030F082
:100340002091F100FC0120830196F8CF289884E6E3
:1003500080932E020895CF92DF92EF92FF920F9337
:100360001F93CF93DF936C017A018B01C0E0D0E043
:10037000CE15DF0581F0D8016D918D01D601ED918B
:10038000FC910190F081E02DC6010995892B11F0B7
:100390002196EECF7E01C701DF91CF911F910F9182
:1003A000FF90EF90DF90CF900895FC01538D448D26
:1003B000252F30E0842F90E0821B930B541710F010
:1003C000CF96089501970895FC01918D828D98171D
:1003D00061F0828DDF01A80FB11D5D968C91928D29
:1003E0009F5F9F73928F90E008958FEF9FEF089526
:1003F000FC01918D828D981731F0828DE80FF11DEF
:10040000858D90E008958FEF9FEF0895FC01918D09
:10041000228D892F90E0805C9F4F821B91098F7302
:100420009927089584EE92E00E94060221E0892B2C
:1004300009F420E0822F0895FC01848DDF01A80FCC
:10044000B11DA35ABF4F2C91848D90E001968F73FC
:100450009927848FA689B7892C93A089B1898C911B
:1004600082748C93938D848D981306C00288F389CF
:10047000E02D80818F7D80830895EF92FF920F930E
:100480001F93CF93DF93EC0181E0888F9B8D8C8D40
:10049000981305C0E889F989808185FD26C0F62E6C
:1004A0000B8D10E00F5F1F4F0F731127E02E8C8D07
:1004B000E8120CC00FB607FCFACFE889F9898081F1
:1004C00085FFF5CFCE010E941C02F1CF8B8DFE017E
:1004D000E80FF11DE35AFF4FF0829FB7F8940B8F9E
:1004E000EA89FB898081806209C09FB7F894EE8910
:1004F000FF896083E889F9898081827480839FBF46
:1005000081E090E0DF91CF911F910F91FF90EF90EC
:100510000895CF93DF93EC01888D8823C9F0EA8991
:10052000FB89808185FD05C0A889B9898C9186FDEC
:100530000FC00FB607FCF5CF808185FFF2CFA889E9
:10054000B9898C9185FFEDCFCE010E941C02E7CFC7
:10055000DF91CF91089580E090E0892B29F00E94EF
:10056000120281110C9400000895CF93DF931F9223
:10057000CDB7DEB76983DC01ED91FC910280F38198
:10058000E02D41E050E0BE016F5F7F4F09950F9075
:10059000DF91CF91089583E08093E9008091F2008C
:1005A000882319F08AE38093E8000895FC0184858C
:1005B000958597FD0BC09FB7F89482E08093E90082
:1005C0008091F2009FBF90E0019608959FB7F89444
:1005D00082E08093E9008091F2009FBF90E008954F
:1005E00085ED8093BC008091BC0084FDFCCF10920F
:1005F000A80208954091BC01262F30E0240F311D40
:1006000021323105DCF42091A8022430C9F4FC0128
:1006100080E090E0861758F43091BC012191DC0114
:10062000A656BE4FA30FB11D2C930196F3CF809118
:10063000BC01680F6093BC0180E0089581E00895DB
:1006400082E0089508950895E091AA028091A90298
:10065000E81730F4F0E0E555FD4F808190E0089513
:100660008FEF9FEF08959091AA028091A9029817A9
:1006700050F4E92FF0E0E555FD4F208130E09F5F19
:100680009093AA0202C02FEF3FEFC9010895809115
:10069000A90290E02091AA02821B91090895CF92AD
:1006A000DF92EF92FF920F931F93CF93DF937C0122
:1006B000CB018A012091CE02222389F0EB016B014C
:1006C000C40ED51ECC15DD0569F06991D701ED91F9
:1006D000FC910190F081E02DC7010995F3CF642FC3
:1006E0000E94FA02C801DF91CF911F910F91FF90F4
:1006F000EF90DF90CF900895CF93DF931F92CDB707
:10070000DEB769832091CE022223D1F02091CB0263
:10071000203240F021E030E0FC013383228380E08E
:1007200090E015C08091CC02E82FF0E0E658FE4F33
:10073000998190838F5F8093CC028093CB0205C018
:1007400061E0CE0101960E94FA0281E090E00F90F4
:10075000DF91CF910895089580E090E00895089585
:100760000E942D230F931F93CF93DF931F92CDB73A
:10077000DEB782E0898342E450E06AEC70E080E812
:100780000E9477010E94D111DC0112960D911C91FB
:1007900013970115110589F0D801ED91FC910280A4
:1007A000F381E02DBE016F5F7F4FC801099597FD72
:1007B00004C0F80100851185ECCF89810F90DF918D
:1007C000CF911F910F9108958F929F92AF92BF92F8
:1007D000CF92DF92EF92FF920F931F93CF93DF930D
:1007E0006C017B018A0180910B01882309F45CC0B4
:1007F00080912F02882309F457C08091E70180FF80
:1008000005C08091E00082608093E000E801B12C97
:100810008AEFA82E93E0892E2AE3922E209711F4D6
:10082000BB20D9F10E94B90F81110AC0AA94AA2055
:10083000D9F161E070E080E090E00E948512EECF97
:10084000282F30E0C217D3070CF48C2F9FB7F894F1
:100850008092E9002091E80025FF1DC0282F30E09C
:10086000C21BD30BF701815020F041914093F1005E
:10087000FACFE20EF31EBB2019F09092E8000AC0F6
:100880008091E80085FD07C09092E800BB24B394F6
:10089000209709F0B12C9FBFC1CF5D9884E680936B
:1008A000E6011016110644F081E090E0F601938312
:1008B000828380E090E001C0C801DF91CF911F9159
:1008C0000F91FF90EF90DF90CF90BF90AF909F90EF
:1008D0008F9008950E94B90F90E008950F931F9391
:1008E000CF93DF931F92CDB7DEB78C01FC018485D7
:1008F000958597FF0EC0CE0101960E948B0F019740
:1009000019F4898190E002C08FEF9FEFF80195877D
:100910008487F801848595850F90DF91CF911F9191
:100920000F910895CF93DF931F92CDB7DEB7FC01EF
:100930008485958597FD05C02FEF3FEF3587248788
:100940000BC0CE0101960E948B0F019719F489818B
:1009500090E002C08FEF9FEF0F90DF91CF9108954D
:100960000F931F93CF93DF93EC01888199810097B8
:1009700029F02A813B812617370788F48B016F5FA6
:100980007F4F0E946722009761F0998388831B83C1
:100990000A832C813D81232B11F4FC01108281E01C
:1009A00001C080E0DF91CF911F910F910895CF9307
:1009B000DF93EC0188819981009711F00E94DE217C
:1009C000198218821D821C821B821A82DF91CF91AC
:1009D0000895EF92FF920F931F93CF93DF93EC0153
:1009E0007B018A01BA010E94B004811104C0CE01CA
:1009F0000E94D70407C01D830C83B70188819981A9
:100A00000E944E23CE01DF91CF911F910F91FF9055
:100A1000EF9008951F920F920FB60F9211242F930B
:100A20003F934F935F936F937F938F939F93AF9376
:100A3000BF93EF93FF93E0911401F0911501099595
:100A4000FF91EF91BF91AF919F918F917F916F91A6
:100A50005F914F913F912F910F900FBE0F901F907C
:100A600018951F920F920FB60F9211242F933F9358
:100A70004F935F936F937F938F939F93AF93BF93A6
:100A8000EF93FF93E0911201F09113010995FF910B
:100A9000EF91BF91AF919F918F917F916F915F91F6
:100AA0004F913F912F910F900FBE0F901F9018956F
:100AB0001F920F920FB60F9211242F933F934F93D3
:100AC0005F936F937F938F939F93AF93BF93EF93B6
:100AD000FF93E0911001F09111010995FF91EF91C1
:100AE000BF91AF919F918F917F916F915F914F9146
:100AF0003F912F910F900FBE0F901F9018951F924E
:100B00000F920FB60F9211242F933F934F935F9341
:100B10006F937F938F939F93AF93BF93EF93FF93C5
:100B2000E0910E01F0910F010995FF91EF91BF91B6
:100B3000AF919F918F917F916F915F914F913F9175
:100B40002F910F900FBE0F901F9018951F920F922C
:100B50000FB60F9211242F933F934F935F936F9390
:100B60007F938F939F93AF93BF93EF93FF93E09106
:100B70000C01F0910D010995FF91EF91BF91AF919B
:100B80009F918F917F916F915F914F913F912F91A5
:100B90000F900FBE0F901F9018951F920F920FB6D7
:100BA0000F9211248F939F938091E1009091E10027
:100BB000937F9093E10083FF0FC01092E90091E0D2
:100BC0009093EB001092EC0092E39093ED00109262
:100BD0002F0298E09093F00082FF20C093E0909362
:100BE000E9009091F200992319F09AE39093E800BC
:100BF0009091E601992339F09091E60191509093FC
:100C0000E601992389F190912E02992339F0909170
:100C10002E02915090932E02992341F184FF10C02F
:100C20008091E2008E7E81608093E2008091E100FD
:100C30008F7E8093E1008091E7018E7E806111C0FC
:100C400080FF16C08091E2008E7E80618093E2007A
:100C50008091E1008E7E8093E1008091E7018E7E9D
:100C600081608093E70104C05D9ACDCF289AD6CFEA
:100C70009F918F910F900FBE0F901F9018951F920C
:100C80000F920FB60F921124CF92DF92EF92FF9244
:100C90000F931F932F933F934F935F936F937F9384
:100CA0008F939F93AF93BF93EF93FF93CF93DF9374
:100CB000CDB7DEB76C97DEBFCDBF1092E900809153
:100CC000E80083FFFBC168E0CE0145960E949E01CB
:100CD00082EF8093E8008D8987FF05C09091E8003E
:100CE00090FFFCCF03C09EEF9093E800982F907682
:100CF00009F0C6C09E894F89588D2F89F88C9111B3
:100D00000CC0803829F48091E8018093F10002C082
:100D10001092F1001092F10045C1913051F481110F
:100D200041C14130510509F03DC18091E8018D7FFD
:100D30000BC0933061F4811135C14130510509F088
:100D400031C18091E80182608093E8012BC1953028
:100D500049F48091E80080FFFCCF822F8068809367
:100D6000E30020C1963009F05EC00B8D1C8D22E09F
:100D70001092E9001092E4011092E301F21232C0E5
:100D80001092E2011092E1010E94B20399E0BE01CB
:100D90006F5F7F4FDB01E92F1D92EA95E9F7998399
:100DA000FA8291E09E8390EA98879AEF9987209142
:100DB000E3013091E401275F3F4F3C832B838D8318
:100DC0001092E9001092E4011092E3011093E20105
:100DD0000093E10149E050E080E00E9477010E9429
:100DE000B203E0C01093E2010093E1010E94D1112F
:100DF000DC0112960D911C9113970115110509F450
:100E0000BBC0D801ED91FC910480F581E02DBE01BD
:100E10006B5E7F4FC8010995009709F0C7C0F801C4
:100E200000851185EACF973009F445C1983021F447
:100E300081E08093F100B6C0993009F0B3C08370AF
:100E400009F039C1EDE1F1E081E031E096E3208184
:100E5000211109C08EE78093EA001092EA008F8981
:100E600080932F029FC08093E9003093EB00219183
:100E70002093EC009093ED008F5F873041F7EACF2D
:100E80008B8D9C8D1092E9001092E4011092E30189
:100E90009093E2018093E101898D811153C08E8985
:100EA0009D89913A49F4813209F005C147E050E04B
:100EB00064E071E080E0BBC0913209F0FCC0833295
:100EC00069F48F89988DA0E0B0E080930001909341
:100ED0000101A0930201B093030164C0803269F460
:100EE0008091E80082FFFCCF67E084E091E00E94FF
:100EF0009E018BEF8093E80055C0823209F052C00A
:100F00008F8980930B01EEEFFFE7859194918B3FE2
:100F10009C4D19F0E0E0F8E002C0EEEFFAE08091BD
:100F2000040190910501A0910601B0910701803B59
:100F30009440A105B10509F09EC080910B0180FF8E
:100F400079C099C00E94D111FC0102811381011561
:100F5000110509F4B0C0D801ED91FC910190F08128
:100F6000E02DBE016B5E7F4FC801099581111AC04B
:100F7000F80100851185EBCFF1E0FF1609F44EC0B2
:100F8000F3E0FF1298C08F89882309F44AC08230A9
:100F900089F440E860E18EE291E00E9442018823FA
:100FA00009F489C08EEF8093E80088C018161906EE
:100FB000CCF381C0813029F440E86BE082E291E01B
:100FC000ECCF833009F077C00E94D111DC0112967A
:100FD000ED90FC9013978E010F5F1F4F6801E11495
:100FE000F10479F0D701ED91FC910680F781E02DB5
:100FF000B801C7010995080F111DF701E084F184BC
:10100000EECFD8011C92F60101900020E9F731974C
:10101000BF016C197D0940E0C601BFCF60E171E0FE
:1010200002C06CE071E0FB01449150E080E80E9456
:101030007701B8CFEE3F2AE0F20751F0808191812D
:101040008737A7E79A0721F09093FF0A8093FE0A5B
:1010500087E797E791838083809160008093E50123
:101060009BE088E10FB6F894A895809360000FBECE
:101070009093600097CF808191818737974709F0DF
:1010800091CFA895809160008861809360008091E5
:10109000E50180936000EE3FBAE0FB0739F08091F4
:1010A000FE0A9091FF0A918380837CCF1092FF0A01
:1010B0001092FE0A77CF81E28093EB006C960FB618
:1010C000F894DEBF0FBECDBFDF91CF91FF91EF91BE
:1010D000BF91AF919F918F917F916F915F914F9150
:1010E0003F912F911F910F91FF90EF90DF90CF9044
:1010F0000F900FBE0F901F9018951F920F920FB672
:101100000F9211242F933F934F935F936F937F938D
:101110008F939F93AF93BF93EF93FF9384EE92E0EF
:101120000E941C02FF91EF91BF91AF919F918F910F
:101130007F916F915F914F913F912F910F900FBED3
:101140000F901F9018951F920F920FB60F921124B7
:101150002F938F939F93EF93FF93E091F402F0917D
:10116000F5028081E091FA02F091FB0282FD12C04B
:1011700090818091FD028F5F8F732091FE02821714
:1011800051F0E091FD02F0E0EC51FD4F958F80931E
:10119000FD0201C08081FF91EF919F918F912F916E
:1011A0000F900FBE0F901F90189508958EBD0000F0
:1011B0000DB407FEFDCF8EB508958CBD9DBD08957D
:1011C0001F920F920FB60F9211242F933F934F93BC
:1011D0005F936F937F938F939F93AF93BF93EF939F
:1011E000FF938091B900887F803609F49CC068F530
:1011F000883209F45BC090F4803109F454C038F4AB
:10120000882309F4F6C0883009F44DC0F6C088314F
:1012100009F44CC0803209F45DC0EFC0803409F499
:1012200068C048F4803309F455C0883309F0E5C03C
:101230008093A602D8C0803509F44FC0883509F4E0
:101240005DC0883409F0D9C0D6C0883909F4C7C058
:10125000A8F4883709F467C038F4883609F463C005
:10126000803709F460C0C9C0883809F4B8C0803933
:1012700009F45FC0803809F0C0C05BC0803B09F44E
:1012800086C038F4803A09F466C0883A09F47FC011
:10129000B4C0803C09F4A7C0883C09F4A4C0883BD2
:1012A00009F48AC0AAC08091A30210C09091A5023F
:1012B0008091A402981770F5E091A50281E08E0F4D
:1012C0008093A502F0E0EE57FD4F80818093BB0034
:1012D00085EC86C08093A6028EC0E091A50281E0D5
:1012E0008E0F8093A5028091BB00F0E0EE57FD4F7A
:1012F00080839091A5028091A4026EC0E091A50226
:1013000081E08E0F8093A5028091BB00F0E0EE5744
:10131000FD4F80838091A70281116DC081E0809391
:10132000A20284EA61C083E08093A8021092E001E7
:10133000CFCF8091E001803208F051C0E091E00110
:1013400081E08E0F8093E0018091BB00F0E0E054DB
:10135000FE4F8083BDCF85EC8093BC001092A80225
:101360008091E001803230F4E091E001F0E0E0545F
:10137000FE4F10826091E00170E0E091BE01F091BB
:10138000BF0180EC91E009951092E00136C084E045
:101390008093A8021092BD011092BC01E091BA01A5
:1013A000F091BB0109958091BC01811105C081E0DC
:1013B0008093BC0110929A01E091BD0181E08E0FF3
:1013C0008093BD01F0E0E656FE4F80818093BB0024
:1013D0009091BD018091BC01981708F479CF85E800
:1013E0008093BC000AC085EC8093BC001092A802D8
:1013F00004C01092A6020E94F002FF91EF91BF91EB
:10140000AF919F918F917F916F915F914F913F919C
:101410002F910F900FBE0F901F9018953091CB0217
:10142000313208F04AC08091A8028111FCCF90911E
:10143000CD0222E02093A8026093A7022FEF209311
:10144000A6021092A5023093A402EAE7F1E0A2E816
:10145000B2E020E0321721F041914D932F5FFACF97
:101460001092A3022091A302990F922B9093A302B2
:101470009091A202913061F41092A2029091A30285
:101480009093BB009091BC0093FDF8CF95EC01C008
:1014900095EE9093BC009091A8029230E1F3909168
:1014A000A6029F3F79F08091A602803241F08091A0
:1014B000A602803331F084E005C081E003C082E001
:1014C00001C083E01092CC021092CB021092CE02A7
:1014D00008951092AA021092A9021092CC021092C2
:1014E000CB021092A80281E08093A7021092A20280
:1014F00061E082E00E94E51161E083E00E94E51175
:10150000E9EBF0E080818E7F808380818D7F808316
:1015100088E48093B80085E48093BC0082E293E085
:101520009093BB018093BA0183E293E09093BF0153
:101530008093BE01089520912C0230912D0228172E
:10154000390771F490912B0280912A02981741F08B
:10155000E0912B02F0E0E651FE4F808190E008958B
:101560008FEF9FEF0895AF92BF92CF92DF92EF92ED
:10157000FF920F931F93CF93DF937C016B018A013E
:10158000A12CB12CC0E0D0E0CA14DB04A8F06CE2BE
:1015900070E0CE0101968E0D9F1D0E9443238E198F
:1015A0009F091816190614F08FEF9FEF2FEFA21A5C
:1015B000B20A9E01EC01E8CFC21BD30BAE01415031
:1015C0005109B9016F5F7F4F6E0D7F1DC8010E94E9
:1015D0005523C00FD11F1882DF91CF911F910F911A
:1015E000FF90EF90DF90CF90BF90AF900895DF9283
:1015F000EF92FF920F931F93CF93DF9300D0CDB75D
:10160000DEB7F82E162FD42E052F8091990388234C
:1016100009F43FC080919A03882349F04091A003C8
:101620005091A1036091A2037091A30308C040915F
:101630009C0350919D0360919E0370919F03CE0186
:1016400001960E94151389819A810E94DD0860E04D
:10165000809198030E94E51180919B038F290E943D
:10166000D608ED2CF02EC701810F911D8C010E15AF
:101670001F0539F080E00E94D608D7018D937D01C7
:10168000F6CF61E0809198030E94E5110E94D50891
:101690008DC080918D0391E09093CE028093CD0216
:1016A0001092CC021092CB0280918E0390918F0306
:1016B000DC01ED91FC910190F081E02D6F2D0995F9
:1016C00060E080918E0390918F030E940E0A8091BA
:1016D000A8028111FCCF80918D03912F113208F067
:1016E00090E221E02093A8022093A7023FEF3093DD
:1016F000A6021092A502390F3093A4022093A302F0
:101700002091A302880F822B8093A3028091A202D2
:10171000813061F41092A2028091A3028093BB00F9
:101720008091BC0083FDF8CF85EC01C085EE8093ED
:10173000BC008091A8028130E1F38091A502891755
:1017400010F49091A502E2E8F2E0ABEAB2E080E0AA
:10175000891721F021912D938F5FFACF1092AA0261
:101760008093A90290E09093950380939403612F56
:1017700070E086179707B9F4ED2CF02E8701080F5B
:10178000191FE016F10691F080918E0390918F035E
:10179000DC01ED91FC910284F385E02D0995F701C0
:1017A00081937F01EECF8FEF9FEF02C081E090E049
:1017B0000F900F90DF91CF911F910F91FF90EF90BD
:1017C000DF9008950F931F93CF93DF9300D0CDB791
:1017D000DEB7082F162F80919903882319F14091C5
:1017E0009C0350919D0360919E0370919F03CE01D5
:1017F00001960E94151389819A810E94DD0860E09C
:10180000809198030E94E511802F0E94D608812FB5
:101810000E94D60861E0809198030E94E5110E9421
:10182000D5082AC080918D0391E09093CE028093D9
:10183000CD021092CC021092CB0280918E03909137
:101840008F03DC01ED91FC910190F081E02D602F80
:10185000099580918E0390918F03DC01ED91FC91AD
:101860000190F081E02D612F099561E080918E0358
:1018700090918F030E940E0A6AE070E080E090E091
:101880000E94851246EA53E061E0802F0E94F70A29
:101890008091A603181719F08FEF9FEF02C081E027
:1018A00090E00F900F90DF91CF911F910F910895CD
:1018B000CF93DF93EC0110929A038230910579F176
:1018C00028F4009759F00197F9F055C0843091053C
:1018D000E1F180F1059709F443C04DC06091EB043C
:1018E0008091EA040E94E20B97FF03C08FEF9FEF05
:1018F00048C06091F2048091F1040E94E20B97FFCE
:101900003AC08EEF9FEF3DC06091EC048091EA04F5
:101910000E94E20B97FDEACF6091F304ECCF609157
:10192000ED048091EA040E94E20B97FDDFCF609105
:10193000F404E1CF6091EE048091EA040E94E20B8E
:1019400097FDD4CF6091F504D6CF6091EF048091DC
:10195000EA040E94E20B97FDC9CF6091F604CBCF59
:101960006091F0048091EA040E94E20B97FDBECFE3
:101970006091F704C0CFD0931904C093180481E09C
:1019800090E0DF91CF9108950F931F93CF93DF9352
:10199000D82FC62F8A0160911D0580910F05682BF5
:1019A00080910A050E94E20B97FD21C06D2F809166
:1019B0000B050E94E20B97FD1DC060910E056C2B7C
:1019C00080910D050E94E20B97FD17C061E070E069
:1019D00080E090E00E948512A8016C2F8091DF04C6
:1019E0000E94F70A9093A5038093A40308C08FEF89
:1019F0009FEF05C08EEF9FEF02C08DEF9FEFDF914D
:101A0000CF911F910F910895CF93DF93D82FC62FB9
:101A100060911D0580910A050E94E20B97FD26C08A
:101A20006D2F80910B050E94E20B97FD22C06C2F59
:101A300080910C050E94E20B97FD1EC060910E057F
:101A4000616080910D050E94E20B97FD18C046EA87
:101A500053E061E08D2F0E94C40C97FD13C080916C
:101A6000A603C81791F08AEF9FEF11C08FEF9FEF89
:101A70000EC08EEF9FEF0BC08DEF9FEF08C08CEF75
:101A80009FEF05C08BEF9FEF02C081E090E0DF91F8
:101A9000CF910895CF93C82F10929A0363E180915C
:101AA000F8040E94E20B97FD44C0609120058091EC
:101AB0001F05CA30C0F00E94040D97FF03C08EEFCF
:101AC0009FEF3CC064E670E080E090E00E948512E9
:101AD0006091210580911F050E94040D97FF10C0A1
:101AE0008DEF9FEF2BC00E94040D97FDE8CF64E6B9
:101AF00070E080E090E00E94851260912205EACFBC
:101B000064E670E080E090E00E94851246EA53E0CF
:101B100067E080911E050E94C40C6C2F8091F80430
:101B20000E94E20B97FD08C0C0931A0481E090E088
:101B300005C08FEF9FEF02C08CEF9FEFCF9108950C
:101B40004F925F926F927F928F929F92BF92CF92AD
:101B5000DF92EF92FF920F931F93CF93DF93CDB756
:101B6000DEB7C457D2400FB6F894DEBF0FBECDBF6C
:101B700082E0B82E0E94BF126B017C0120EDC20EE4
:101B800027E0D21EE11CF11C80E395E00E941B10AF
:101B9000892B39F40E94BF126C157D058E059F05B7
:101BA00098F30E94BF126C157D058E059F0570F598
:101BB0000E94BF122B013C0148E5440E42E0541E36
:101BC000611C711CCE0101967C0100E010E06C01EB
:101BD0000E94BF12641575058605970520F4033F22
:101BE00091E0190711F5FE01E00FF11F108261E489
:101BF00071E0C6010E94771E4C018C010C191D0971
:101C00001016110614F1BA94B110B4CF10927802E4
:101C10001092750210926A021092670210925C0292
:101C20001092590210924F025FC180E395E00E942A
:101C30001B10892B69F280E395E00E943310F701B5
:101C400081937F010F5F1F4FC3CF6AE070E0C8012F
:101C500001968C0D9D1D0E9443238C199D09181619
:101C600019068CF67C01E01AF10A8E010B501E4F0A
:101C7000A701B401C8010E945523F801EE0DFF1D14
:101C800010826FE371E0C8010E94771EBC01601BE7
:101C9000710B161617060CF027C1F80180E090E0D2
:101CA00020E030E04191042E000C550B842795274D
:101CB0002F5F3F4F26173707A9F77E01FFE8EF1A7E
:101CC000FDEFFF0AF7011182108213821282A9012F
:101CD0004F5F5F4F2B503E4FC20ED31ED70120E007
:101CE00030E0F80101900020E9F7BF01601B710BA3
:101CF000625071094617570768F4F60161916F0148
:101D00006D932F5F3F4F2530310509F4EDC04F5FD4
:101D10005F4FE7CFF701E20FF31F1082C559DD4F88
:101D200019821882CB56D240C359DD4F19821882CE
:101D3000CD56D240C159DD4F19821882CF56D240BC
:101D40006E01F7EACF1AFDEFDF0A40E1B6010E940B
:101D5000911EF60101900020E9F73197AF014C196F
:101D60005D09B601CE0185599D4F0E94E904C55910
:101D7000DD4FC880D980CB56D240C114D10469F060
:101D8000F6018081882349F0082E000C990B0E94EF
:101D90003223F60181936F01F3CFF7010190002008
:101DA000E9F73197AF014E195F09B701CE018559A7
:101DB0009D4F0E94E904C559DD4F88819981CB561A
:101DC000D240009709F086C0F12CC559DD4F8881BB
:101DD0009981CB56D2400E94DE21FF2009F484C0B5
:101DE000809178028A3739F048E752E061E070E08C
:101DF000C8010E94B30A809175028A3739F045E71D
:101E000052E062E070E0C8010E94B30A80916A0269
:101E10008A3739F04AE652E063E070E0C8010E9478
:101E2000B30A809167028A3739F047E652E064E0EE
:101E300070E0C8010E94B30A80915C028A3739F0D1
:101E40004CE552E065E070E0C8010E94B30A809161
:101E500059028A3739F049E552E066E070E0C8017E
:101E60000E94B30A80914F028A3739F04FE452E062
:101E700067E070E0C8010E94B30A809147028A3788
:101E800039F047E452E068E070E0C8010E94B30A0C
:101E900080913D028A3739F04DE352E069E070E00D
:101EA000C8010E94B30A809133028A3739F043E3B4
:101EB00052E06AE070E0C8010E94B30A80913002EB
:101EC0008A3791F040E352E06BE070E0C8010E9475
:101ED000B30A0AC00E94DE21CE0185599D4F0E949F
:101EE000DE21FF24F39471CFCC58DD4F0FB6F89468
:101EF000DEBF0FBECDBFDF91CF911F910F91FF903D
:101F0000EF90DF90CF90BF909F908F907F906F90D9
:101F10005F904F90089520912F02211103C08FEF01
:101F20009FEF08955FB7F89422E02093E900209195
:101F3000F20030E01216130614F421E030E0422FD4
:101F4000FC0184E6415038F0289880932E0290914D
:101F5000F1009193F7CF2115310521F08091F20026
:101F6000882319F05FBFC90108958BE68093E800CC
:101F7000F9CF2FB7F89483E08093E9009091E800BF
:101F8000892F807295FF04C09091F20080E4891B34
:101F90002FBF089508951F93CF93DF93DC015C96C4
:101FA0008D919C915D97009739F421E030E0139674
:101FB0003C932E9312973BC05196ED91FC91529712
:101FC00050962C915097322F30951FB75E964C91BA
:101FD0005E97742F727041FD6095F894408177236D
:101FE00011F0422B01C043234083EC012197F1F70C
:101FF00048E0508160FF02C0522B01C05323508340
:10200000EC012197F1F76695415099F7808177238C
:1020100019F08323808302C0282B20831FBF5C9686
:102020008D919C915D970197F1F781E090E0DF91B0
:10203000CF911F91089520912C0230912D022817E5
:10204000390771F480912A0220912B0290E0805C84
:102050009F4F821B910960E470E00E94392008952F
:1020600080E090E0089520912C0230912D022817F5
:102070003907B9F490912B0280912A02981789F0C0
:10208000E0912B02F0E0E651FE4F808120912B027F
:1020900030E02F5F3F4F2F73332720932B0290E0C8
:1020A00008958FEF9FEF08953FB7F8948091D40281
:1020B0009091D502A091D602B091D70226B5A89BE7
:1020C00005C02F3F19F00196A11DB11D3FBFBA2FCA
:1020D000A92F982F8827820F911DA11DB11DBC012A
:1020E000CD0142E0660F771F881F991F4A95D1F7EF
:1020F00008951F920F920FB60F9211242F933F93C2
:102100004F935F936F937F938F939F93AF93BF93FF
:10211000EF93FF93E0912C02F0912D02309709F498
:1021200051C0968DA685B785858591FF04C09C9189
:10213000892329F447C09C91892309F043C0A389CE
:10214000B4899C918589809589238C938689978908
:102150000197F1F7608D718DA685B785558538E0BB
:1021600020E0CB010197F1F7822F90E095958795BC
:10217000282F4C91452309F02068315091F7868D26
:1021800081FD209580912A0290E001968F73992716
:1021900030912B02381749F0A0912A02B0E0A651E5
:1021A000BE4F2C9380932A0203C0868D8160868F58
:1021B000828D938D0197F1F7A389B4899C918589CC
:1021C000892B8C93FF91EF91BF91AF919F918F914C
:1021D0007F916F915F914F913F912F910F900FBE23
:1021E0000F901F901895E0912C02F0912D02E817A6
:1021F000F90769F4A389B4899C918589809589231D
:102200008C9310922D0210922C0281E0089580E0B0
:102210000895CF93DF93EC019A01AB011B8E1A8EC8
:10222000198E188E1F8A1E8A60E079E08DE390E097
:102230000E94C11FF9012430310518F0C90103972C
:1022400002C081E090E09D8F8C8F8C8598EF980F75
:10225000943048F062EF680F643028F066EE680F43
:10226000633008F072C0B9017695679564317105E5
:1022700018F06351710902C061E070E07F8B6E8BD2
:10228000369720F0B9016550710902C061E070E035
:10229000798F688FB901660F771F260F371F369524
:1022A0002795369527952D30310518F02C5031099A
:1022B00002C021E030E03B8F2A8F943058F092EF3B
:1022C000980F943038F08A51833008F05FC0A8E648
:1022D000B0E05EC0A8E6B0E0E8E6F0E080818160B2
:1022E0008C938C8598EF980F943040F022EF280F54
:1022F000243020F026EE280F233018F42BE630E0AF
:1023000002C020E030E03C8B2B8B943010F49CEF2B
:1023100009C08E3071F08F3071F0803171F08131F1
:1023200071F09AEE980F81E001C0880F9A95EAF754
:1023300007C088E005C082E003C084E001C081E0FE
:102340008D8B8C8D9D8D0197F1F78A8D9B8D892BBF
:1023500029F180912C0290912D02C817D907F1F034
:10236000009711F00E94F3108E8D8E7F8E8F109249
:102370002A0210922B02D0932D02C0932C02EB89DB
:10238000FC8990818D89892B808308C0A0E0B0E012
:10239000833008F4A1CFE0E0F0E0A0CFDF91CF914F
:1023A00008958091DC0281110DC082E08093D802F3
:1023B00084E08093D9021092DB021092DA0281E06D
:1023C0008093DC0288ED92E00895362F90E0FC01C6
:1023D000EB5AFE4F4491FC01E155FE4F2491FC0164
:1023E000E057FE4F8491882309F452C04423E1F161
:1023F00050E0FA013197EF30F105B0F5EA5AFF4F9E
:102400000C944D20909180009F7707C090918000A0
:102410009F7D03C090918000977F9093800024C09F
:1024200094B59F7702C094B59F7D94BD1DC09091D7
:1024300090009F7707C0909190009F7D03C090917E
:102440009000977F909390000FC09091C0009F776D
:1024500003C09091C0009F7D9093C00005C09091F3
:10246000C200977F9093C200E82FF0E0EE0FFF1FAD
:10247000EC58FE4FA591B4919FB7F894311104C068
:102480008C912095282302C0EC912E2B2C939FBF7A
:102490000895CF93DF9390E0FC01E155FE4F249126
:1024A000FC01E057FE4F8491882361F190E0880F92
:1024B000991FFC01E95BFE4FC591D491FC01EC58DA
:1024C000FE4FA591B491611109C09FB7F89488811E
:1024D000209582238883EC912E230BC0623061F417
:1024E0009FB7F8948881322F309583238883EC91AD
:1024F0002E2B2C939FBF06C08FB7F894E8812E2B0C
:1025000028838FBFDF91CF9108958F929F92AF92D2
:10251000BF92CF92DF92EF92FF926B017C010E94FB
:1025200054104B015C01C114D104E104F104F1F039
:102530000E945410DC01CB0188199909AA09BB0932
:10254000883E9340A105B10570F321E0C21AD1087D
:10255000E108F10888EE880E83E0981EA11CB11CEA
:10256000C114D104E104F10419F7DDCFFF90EF901D
:10257000DF90CF90BF90AF909F908F9008952FB72E
:10258000F8946091D0027091D1028091D202909122
:10259000D3022FBF08951F920F920FB60F921124EE
:1025A0002F933F938F939F93AF93BF938091D002CC
:1025B0009091D102A091D202B091D3023091CF027A
:1025C00023E0230F2D3720F40196A11DB11D05C076
:1025D00026E8230F0296A11DB11D2093CF02809300
:1025E000D0029093D102A093D202B093D3028091F3
:1025F000D4029091D502A091D602B091D702019653
:10260000A11DB11D8093D4029093D502A093D60250
:10261000B093D702BF91AF919F918F913F912F912E
:102620000F900FBE0F901F901895CF92DF92EF92F0
:10263000FF92FC01C12C92E1D92E9AE7E92EF12CF0
:1026400020E04C155D056E057F0540F4F694E79497
:10265000D794C7942F5F2630A1F727E091E0922707
:10266000292F286B2695208391709183FF90EF90FE
:10267000DF90CF900895CF93DF93CDB7DEB76C97FF
:102680000FB6F894DEBF0FBECDBF789484B58260DC
:1026900084BD84B5816084BD85B5826085BD85B506
:1026A000816085BD80916E00816080936E00109284
:1026B00081008091810082608093810080918100FF
:1026C0008160809381008091800081608093800090
:1026D000809191008260809391008091910081604F
:1026E0008093910080919000816080939000809110
:1026F000C10084608093C1008091C100826080939A
:10270000C1008091C10081608093C1008091C300AD
:1027100081608093C3008091C00082608093C0007C
:102720008091C20081608093C20080917A008460B1
:1027300080937A0080917A00826080937A00809101
:102740007A00816080937A0080917A00806880931B
:102750007A0010922F021092E8011092E701809106
:10276000D70081608093D70080EA8093D80089B534
:10277000806189BD89B5826089BD09B400FEFDCF45
:1027800061E070E080E090E00E9485128091D800C6
:102790008F7C80618093D8008091E000807F80935F
:1027A000E0008091E1008E7E8093E1008DE08093D7
:1027B000E200559A209AE091F402F091F50282E04D
:1027C0008083E091F002F091F1021082E091F20238
:1027D000F091F3028FEC80831092FC02E091F802FA
:1027E000F091F90286E08083E091F602F091F70221
:1027F000808180618083E091F602F091F702808110
:1028000088608083E091F602F091F7028081806811
:102810008083E091F602F091F70280818F7D8083C2
:1028200081E893E00E94690A61E080E00E94491219
:1028300060E080E00E94E51161E083E00E944912BF
:1028400060E083E00E94E51161E085E00E944912AA
:1028500060E085E00E94E51161E08DE00E94491290
:1028600060E08DE00E94E51161E081E00E94491284
:1028700061E081E00E94E5110E94A00D61E082E02C
:102880000E94491261E082E00E94E51140E855E2B1
:1028900060E070E08FE495E00E9409116DE081E056
:1028A0000E9449126FEF70E08AE295E00E94B00446
:1028B00080919903882309F442C010929A0361E041
:1028C000809198030E94491261E0809198030E94D0
:1028D000E5112FB72983F8948091E901811127C070
:1028E000E1EAF1E08491E0ECF1E09491E82FF0E08E
:1028F000EE0FFF1FE95BFE4FA591B491EC91E92328
:1029000021F461E081E10E94E51161E081E10E9432
:1029100049128CB580618CBD8CB580648CBD61E042
:102920008FE00E94491261E080E10E94491280918B
:10293000E9018F5F8093E90139813FBF1FC080911A
:102940008E0390918F030E94690A20919003309129
:102950009103409192035091930360E074E284EFFD
:1029600090E00E941720DA01C9014097A109B1093E
:10297000B695A795979587958093B80060910205C5
:102980008091FF040E94E20B97FD5AC060910705F9
:10299000809106050E94E20B97FD52C060910805E8
:1029A000809109050E94E20B97FD4AC060912005C5
:1029B00080911F050E94040D609101058091FF0424
:1029C0000E94E20B61E070E080E090E00E948512DE
:1029D00060912505809124050E94040D60910205F7
:1029E0008091FF040E94E20B97FD2AC046EA53E063
:1029F00061E0809115050E94F70A97FD04C080915F
:102A0000A603813769F046EA53E061E0809115053D
:102A10000E94F70A97FD14C08091A603833781F4C2
:102A200060910405809103050E94E20B97FD08C0A8
:102A30006091E4048091E0040E94E20B97FF03C0E0
:102A40000E94AB02FDCF20E030E040E851E460910D
:102A5000D4047091D5048091D6049091D7040E943B
:102A6000031F20E03FEF4FEF56E40E94D420609315
:102A7000F8037093F9038093FA039093FB0343E008
:102A800050E050931504409314046091E904809140
:102A9000E5040E94E20B97FDD3CF2AEF30E04AE72E
:102AA0005DE36091D8047091D9048091DA0490912B
:102AB000DB040E94031F6093FC037093FD0380936B
:102AC000FE039093FF0383E090E0909317048093BC
:102AD00016046091EB048091EA040E94E20B97FDDA
:102AE000AFCF6091F2048091F1040E94E20B97FD58
:102AF000A7CF109219041092180460E08091F80496
:102B00000E94E20B97FD9CCF10921A04609107057A
:102B1000809106050E94E20B97FD92CF6091080517
:102B2000809109050E94E20B97FD8ACF46EA53E0A7
:102B300061E0809127050E94C40C97FD81CF8091B0
:102B4000A603883409F07CCF6091200580911F0591
:102B50000E94040D97FD74CF64E670E080E090E081
:102B60000E9485126091230580911F050E94040D2B
:102B700097FD66CF64E670E080E090E00E948512E9
:102B800046EA53E063E0809126050E94C40C609100
:102B9000A60370E080E090E00E94C61E20E030E0D6
:102BA00040E053E40E94672020E030E040E85BE32F
:102BB0000E94031F20E030E040E85FE30E946820AD
:102BC00020E030E849E955E40E94031F20E030EF9F
:102BD0004FEF56E40E94D4206093000470930104E8
:102BE00080930204909303046091A70370E080E057
:102BF00090E00E94C61E20E030E040E053E40E94D6
:102C0000672020E030E040E85BE30E94031F20E003
:102C100030E040E85FE30E94682020E030E849E9C6
:102C200055E40E94031F20E030EF4FEF56E40E946E
:102C3000D420609304047093050480930604909359
:102C400007046091A80370E080E090E00E94C61E37
:102C500020E030E040E053E40E94672020E030E0D4
:102C600040E85BE30E94031F20E030E040E85FE3C0
:102C70000E94682020E030E849E955E40E94031FE3
:102C800020E030EF4FEF56E40E94D4206093080418
:102C90007093090480930A0490930B0460912005BB
:102CA00080911F050E94040D97FDCACE64E670E076
:102CB00080E090E00E9485126091220580911F05BE
:102CC0000E94040D97FDBCCE64E670E080E090E0C9
:102CD0000E948512609102058091FF040E94E20B20
:102CE00097FDAECE46EA53E067E080911E050E9454
:102CF000C40C10929A036091E6048091E5040E944E
:102D0000E20B97FD9DCE2AEF30E04AEF5BE3609146
:102D1000D8047091D9048091DA049091DB040E9468
:102D2000031F6093FC037093FD038093FE03909355
:102D3000FF03109217041092160483E090E00E94A3
:102D4000580C97FD7DCE83E10E944A0D97FD78CE09
:102D500010921D0410921E0410921F041092200461
:102D60001092210410922204109223041092240441
:102D70001092250410922604109227041092280421
:102D8000812C912C80911B0490911C04881699062B
:102D900008F079C391E090939A0346EA53E065E125
:102DA0008091DC040E94F70A97FDE1C2A090A6037F
:102DB000B090A703BA24AB24BA24B092BC03A0926B
:102DC000BB03C090A803D090A903DC24CD24DC244D
:102DD000D092BE03C092BD032090AA033090AB03F3
:102DE0003224232432243092C0032092BF03609106
:102DF000AC037091AD03362F272F3A83298330938C
:102E0000CE032093CD03E090AE03F090AF03FE24F9
:102E1000EF24FE24F092C203E092C1030091B003BC
:102E20001091B1031027012710271093C4030093BA
:102E3000C3034091B2035091B3035427452754274D
:102E40005C8F4B8F5093C6034093C5038091B403AE
:102E50009091B5039C838B839093C8038093C703A1
:102E60002091B6033091B7033E832D833093CA037C
:102E70002093C9034091B8035091B90358874F83F9
:102E80005093CC034093CB038091C2049091C30430
:102E90009A8789872091C4043091C5043C872B8789
:102EA0004091C6045091C7045E874D874090F80357
:102EB0005090F9036090FA037090FB03A89EB00154
:102EC000A99E700DB89E700D1124C29EC001C39EB4
:102ED000900DD29E900D1124680F791F249EC00181
:102EE000259E900D349E900D1124680F791F072E9A
:102EF000000C880B990B0E94C81EA30192010E942E
:102F0000031F2091590430915A0440915B04509161
:102F10005C040E9467202091650430916604409112
:102F20006704509168040E94031F6093CF0370935D
:102F3000D0038093D1039093D2038091C8049091E1
:102F4000C904988B8F872091CA043091CB043A8BA7
:102F5000298B4091CC045091CD045C8B4B8BA89E67
:102F6000B001A99E700DB89E700D1124C29EC001C3
:102F7000C39E900DD29E900D1124680F791F249E40
:102F8000C001259E900D349E900D1124680F791F6D
:102F9000072E000C880B990B0E94C81EA3019201FA
:102FA0000E94031F20915D0430915E0440915F04F4
:102FB000509160040E9467202091690430916A0456
:102FC00040916B0450916C040E94031F6093D303E3
:102FD0007093D4038093D5039093D6038091CE044D
:102FE0009091CF049E8B8D8B2091D0043091D10491
:102FF000388F2F8B4091D2045091D3045A8F498F30
:103000009C01A29EC001A39E900DB29E900D112422
:103010004F89588DC49EB001C59E700DD49E700D11
:103020001124680F791F898D9A8D289E9001299E01
:10303000300D389E300D1124620F731F072E000CC7
:10304000880B990B0E94C81EA30192010E94031FC6
:1030500020916104309162044091630450916404B2
:103060000E94672020916D0430916E0440916F049E
:10307000509170040E94031F6093D7037093D8038C
:103080008093D9039093DA034090FC035090FD03A2
:103090006090FE037090FF0329853A85E29EC0018F
:1030A000E39E900DF29E900D11244B855C85049F4C
:1030B000B001059F700D149F700D1124680F791FCA
:1030C0002B8D3C8D4D855E85249FC001259F900DE5
:1030D000349F900D1124680F791F072E000C880B68
:1030E000990B0E94C81EA30192010E94031F209108
:1030F000290430912A0440912B0450912C040E9401
:1031000067206093DB037093DC038093DD0390936F
:10311000DE038F859889E89EB001E99E700DF89EC8
:10312000700D112429893A89029FC001039F900DD7
:10313000129F900D1124680F791F4B8D5C8D2B8988
:103140003C89429FC001439F900D529F900D1124D6
:10315000680F791F072E000C880B990B0E94C81E60
:10316000A30192010E94031F20912D0430912E048F
:1031700040912F04509130040E9467206093DF0338
:103180007093E0038093E1039093E2034D895E899D
:10319000E49EC001E59E900DF49E900D11242F89B0
:1031A000388D029FB001039F700D129F700D112486
:1031B000680F791F4B8D5C8D898D9A8D489F90018A
:1031C000499F300D589F300D1124620F731F072E39
:1031D000000C880B990B0E94C81EA30192010E944B
:1031E000031F2091310430913204409133045091F7
:1031F00034040E9467206093E3037093E403809398
:10320000E5039093E6032B813C81B901330F880BD2
:10321000990B0E94C81E2091000430910104409136
:103220000204509103040E94031F2091A6043091D0
:10323000A7044091A8045091A9040E9467202091FE
:10324000B2043091B3044091B4045091B5040E948B
:10325000031F6093E7037093E8038093E90390935F
:10326000EA034D815E81BA01550F880B990B0E94CC
:10327000C81E209104043091050440910604509129
:1032800007040E94031F2091AA043091AB044091CF
:10329000AC045091AD040E9467202091B604309197
:1032A000B7044091B8045091B9040E94031F609381
:1032B000EB037093EC038093ED039093EE032F8167
:1032C0003885B901330F880B990B0E94C81E2091D5
:1032D00008043091090440910A0450910B040E94A3
:1032E000031F2091AE043091AF044091B00450917F
:1032F000B1040E9467202091BA043091BB04409130
:10330000BC045091BD040E94031F6093EF037093AF
:10331000F0038093F1039093F203C0901004D090D7
:103320001104E0901204F090130449815A81BA010B
:10333000550F880B990B0E94C81EA70196010E9489
:10334000672020910C0430910D0440910E0450919F
:103350000F040E94D420A70196010E946820609368
:10336000F3037093F4038093F5039093F603609155
:103370001B0470911C0480E090E00E94C61E6B014B
:103380007C012091290430912A0440912B04509112
:103390002C046091DB037091DC038091DD0390913C
:1033A000DE030E946820A70196010E94D42020918C
:1033B0001D0430911E0440911F04509120040E946E
:1033C000682060931D0470931E0480931F049093E3
:1033D000200420912D0430912E0440912F0450910F
:1033E00030046091DF037091E0038091E1039091DC
:1033F000E2030E946820A70196010E94D420209138
:1034000021043091220440912304509124040E940D
:103410006820609321047093220480932304909386
:1034200024042091310430913204409133045091AE
:1034300034046091E3037091E4038091E50390917B
:10344000E6030E946820A70196010E94D4202091E3
:1034500025043091260440912704509128040E94AD
:10346000682060932504709326048093270490932A
:10347000280464E170E080E090E00E9485125FEF34
:10348000851A950A7FCC80911D0490911E04A0910D
:103490001F04B09120048093290490932A04A093E0
:1034A0002B04B0932C048091210490912204A091CC
:1034B0002304B091240480932D0490932E04A093B0
:1034C0002F04B09330048091250490912604A0919C
:1034D0002704B09128048093310490933204A09380
:1034E0003304B093340480911604909117049A83A6
:1034F000898310929A0381309105A1F030F08230D7
:103500009105E9F0039741F145C06091E60480918F
:10351000E5040E94E20B97FD93CA2AEF30E04AEFE0
:103520005BE326C06091E7048091E5040E94E20B12
:1035300097FD86CA2AEF30E04AE75CE319C0609144
:10354000E8048091E5040E94E20B97FD79CA2AEF16
:1035500030E04AEF5CE30CC06091E9048091E5043F
:103560000E94E20B97FD6CCA2AEF30E04AE75DE368
:103570006091D8047091D9048091DA049091DB04B1
:103580000E94031F6093FC037093FD038093FE036E
:103590009093FF0329813A813093170420931604F6
:1035A00080911804909119040E94580C97FD48CA04
:1035B00080911A040E944A0D97FD42CA10929A0304
:1035C0006091E1048091E0040E94E20B97FD1EC02F
:1035D0006091D4047091D5048091D6049091D70461
:1035E0009B01AC010E94682020E03FEF4FEF56E4C2
:1035F0000E94D4206093F8037093F9038093FA0338
:103600009093FB03109215041092140410929A03E5
:103610006091E7048091E5040E94E20B97FD1CC0D5
:103620002AEF30E04AE75CE36091D8047091D90456
:103630008091DA049091DB040E94031F6093FC03E5
:103640007093FD038093FE039093FF0381E090E06D
:10365000909317048093160483E090E00E94580C26
:1036600083E10E944A0D10929A0360912005809197
:103670001F050E94040D609101058091FF040E94C6
:10368000E20B61E070E080E090E00E94851260E073
:103690008091FF040E94E20B97FDD2C9609105055D
:1036A000809103050E94E20B97FDCAC96091EB046B
:1036B0008091EA040E94E20B97FDC2C96091FD046B
:1036C0008091FA040E94E20B97FDBAC9609111053E
:1036D00080911205682B809110050E94E20B97FDE6
:1036E000AFC982E38093F70362E3809114050E94DF
:1036F000E20B97FDA5C969E0809113050E94E20BDA
:1037000097FD9EC9609100058091FF040E94E20B25
:1037100097C91F93CF93DF93EC01162F60E0812FA1
:103720000E9449128E8D81FD04C061E0812F0E94AC
:10373000E5111C87812F90E0FC01E155FE4FE491DB
:10374000ED87FC01E057FE4FE491F0E0EE0FFF1F24
:10375000EE57FE4F859194919F878E87DF91CF9191
:103760001F9108951F93CF93DF93EC01162F6E8D59
:103770006695617081E06827812F0E94E51161E004
:10378000812F0E944912812F90E0FC01E155FE4FEC
:10379000E491E88BFC01E057FE4FE491F0E0EE0F7E
:1037A000FF1FEC58FE4F859194919A8B898BDF9186
:1037B000CF911F9108950F931F93CF93DF9300E351
:1037C00015E08DE591E0F801918380834AE050E0B7
:1037D0006BE671E087E795E00E94E40342E050E089
:1037E00066E771E087E795E00E94E403CDE5D1E06C
:1037F000F801D183C083C8010E94F31080912A058B
:1038000090912B050E94DE21D0935005C0934F0567
:103810008FE495E0DF91CF911F910F910C94F310FD
:103820008F929F92AF92BF92CF92DF92EF92FF92D0
:103830000F931F93CF93DF93E4EEF2E01382128293
:1038400088EE882E83E0982EA12CB12C848295825C
:10385000A682B78287E291E0918380838DEC90E02D
:10386000958784878CEC90E09787868788EC90E03A
:10387000918B808B89EC90E0938B828B8AEC90E02B
:10388000958B848B8EEC90E0978B868B118E128EAD
:10389000138E148EE7E7F5E01382128284829582FC
:1038A000A682B78289E391E091838083CC24CA9475
:1038B000DC2CD586C486EFE4F5E013821282848284
:1038C0009582A682B7820DE511E011830083178AE5
:1038D000168A118E108E138E128E158E148EEDE6B2
:1038E000F5E080818E7F8D7F80836BE08FE495E0B3
:1038F0000E94B21B6AE08FE495E00E94891B21E8D8
:10390000E22E23E0F22EF701138212828482958246
:10391000A682B7828BE491E091838083E8E2F5E0B0
:1039200013821282158214821782168240E050E0C0
:1039300068E771E08AE295E00E94E904C0E3D5E01F
:103940001B821A828C829D82AE82BF821983088379
:103950001F8A1E8A198E188E1B8E1A8E1D8E1C8E23
:10396000EEE4F5E080818E7F8D7F808361E0CE0183
:103970000E94B21B60E0CE010E94891B8DE591E0A0
:103980009983888340E855E260E070E0CE010E94B0
:1039900009110EE615E0F8011082C1E0C183C2836F
:1039A00034E6A32EB12CB482A382B682A582C7834B
:1039B00061E081E00E94491260E081E00E94E5112F
:1039C000F8011086EDE8F3E080E89AE1A6E0B0E0C7
:1039D00083839483A583B68380E8868740E452E49A
:1039E0006FE070E04787508B618B728B40EC51EE3B
:1039F00064EE70E0438B548B658B768B4CE55FEE09
:103A000066EA73E440930C0450930D0460930E0433
:103A100070930F0440E050E068EA71E440931004B2
:103A2000509311046093120470931304B0921C0419
:103A3000A0921B0440E050E060E87FE340936504FF
:103A4000509366046093670470936804409369041C
:103A500050936A0460936B0470936C0440936D04FC
:103A600050936E0460936F047093700428EE33E0FB
:103A700030937204209371040AE919E929E93EE3BD
:103A800000937304109374042093750430937604A8
:103A900098E0909377044093B2045093B3046093FA
:103AA000B4047093B5044093B6045093B704609384
:103AB000B8047093B9044093BA045093BB04609364
:103AC000BC047093BD041092C3041092C20421E0A0
:103AD00030E03093C5042093C4041092C7041092C0
:103AE000C6043093C9042093C8041092CB041092EA
:103AF000CA041092CD041092CC041092CF041092FC
:103B0000CE041092D1041092D004D092D304C0926B
:103B1000D20449E759EE6CE171E44093D404509328
:103B2000D5046093D6047093D70445E35AEF6EE84A
:103B30007CE34093D8045093D9046093DA047093E3
:103B4000DB042BE32093DC0423E42093DD0421E455
:103B50002093DE0429E42093DF042CE12093E00489
:103B60001092E1049093E20420E12093E30438E111
:103B70003093E4044BE14093E5041092E604909303
:103B8000E7042093E8043093E9043DE13093EA042C
:103B9000C093EB0472E07093EC0433E03093ED04D7
:103BA00064E06093EE0455E05093EF0446E04093E8
:103BB000F004AAE1A093F104C093F2047093F3041B
:103BC0003093F4046093F5045093F6044093F704A3
:103BD00049E14093F80447E34093F90448E34093F4
:103BE000FA041092FB041092FC0440E44093FD049C
:103BF000C093FE045BE65093FF0450E2509300052F
:103C000080930105C09302056CE660930305109252
:103C1000040567E0609305056AE660930605509326
:103C200007055DE05093080554E25093090555E2FD
:103C300050930A0556E250930B0553E650930C053A
:103C400057E250930D0580930E0580930F0559E6BA
:103C50005093100580931105409312054EE1409357
:103C600013054FE14093140545E74093150543E2E2
:103C7000409316058093170580E78093180590936D
:103C80001905C0931A0582E780931B0584E780938A
:103C90001C058CE080931D0530931E058AE08093FF
:103CA0001F051092200582E18093210586E1809313
:103CB00022058FE0809323058BE080932405C09339
:103CC00025052093260510922705F282E18288E6D9
:103CD00080831486DF91CF911F910F91FF90EF9019
:103CE000DF90CF90BF90AF909F908F900895FB0191
:103CF00055915523A9F0BF01DC014D9145174111A4
:103D0000E1F759F4CD010590002049F04D9140159F
:103D10004111C9F3FB014111EFCF81E090E0019720
:103D20000895BB274A3031F4992322F4BDE29095DF
:103D300081959F4F0C949D1EBB27FB015527AA27F9
:103D4000880F991FAA1FA41710F0A41B8395505128
:103D5000B9F7A05DAA3308F0A95DA193009779F7A0
:103D6000B111B1931192CB010C94B61EDC01FC0190
:103D7000672F71917723E1F7329704C07C916D939F
:103D800070836291AE17BF07C8F30895E89409C025
:103D900097FB3EF490958095709561957F4F8F4F7E
:103DA0009F4F9923A9F0F92F96E9BB279395F69594
:103DB000879577956795B795F111F8CFFAF4BB0F12
:103DC00011F460FF1BC06F5F7F4F8F4F9F4F16C076
:103DD000882311F096E911C0772321F09EE8872F00
:103DE000762F05C0662371F096E8862F70E060E0BC
:103DF0002AF09A95660F771F881FDAF7880F969535
:103E0000879597F908950E94161F0C94871F0E94AA
:103E1000791F38F00E94801F20F0952311F00C9438
:103E2000701F0C94761F11240C94BB1F0E94981FC6
:103E300070F3959FC1F3950F50E0551F629FF001FD
:103E4000729FBB27F00DB11D639FAA27F00DB11D16
:103E5000AA1F649F6627B00DA11D661F829F22279F
:103E6000B00DA11D621F739FB00DA11D621F839F26
:103E7000A00D611D221F749F3327A00D611D231FFC
:103E8000849F600D211D822F762F6A2F11249F574A
:103E900050409AF0F1F088234AF0EE0FFF1FBB1F4D
:103EA000661F771F881F91505040A9F79E3F51050C
:103EB00080F00C94701F0C94BB1F5F3FE4F3983E9E
:103EC000D4F3869577956795B795F795E7959F5FB6
:103ED000C1F7FE2B880F911D9695879597F9089548
:103EE00097F99F6780E870E060E008959FEF80ECAD
:103EF000089500240A941616170618060906089550
:103F000000240A9412161306140605060895092EB5
:103F10000394000C11F4882352F0BB0F40F4BF2B24
:103F200011F460FF04C06F5F7F4F8F4F9F4F089564
:103F300057FD9058440F551F59F05F3F71F047955A
:103F4000880F97FB991F61F09F3F79F0879508953F
:103F5000121613061406551FF2CF4695F1DF08C05E
:103F6000161617061806991FF1CF8695710561057B
:103F700008940895E894BB2766277727CB0197F923
:103F80000895052E97FB1EF400940E94D81F57FD3C
:103F900007D00E94172007FC03D04EF40C94D81FC2
:103FA00050954095309521953F4F4F4F5F4F089565
:103FB00090958095709561957F4F8F4F9F4F089595
:103FC0002F923F924F925F926F927F928F929F9229
:103FD000AF92BF92CF92DF92EF92FF920F931F9317
:103FE000CF93DF93CDB7DEB7CA1BDB0B0FB6F894C8
:103FF000DEBF0FBECDBF09942A88398848885F8408
:104000006E847D848C849B84AA84B984C884DF8078
:10401000EE80FD800C811B81AA81B981CE0FD11D5C
:104020000FB6F894DEBF0FBECDBFED010895A1E23B
:104030001A2EAA1BBB1BFD010DC0AA1FBB1FEE1F22
:10404000FF1FA217B307E407F50720F0A21BB30B6D
:10405000E40BF50B661F771F881F991F1A9469F7E9
:1040600060957095809590959B01AC01BD01CF0145
:10407000089597FB072E16F4009407D077FD09D01A
:104080000E94532007FC05D03EF4909581959F4FE8
:104090000895709561957F4F0895EE0FFF1F05906D
:1040A000F491E02D0994AA1BBB1B51E107C0AA1F84
:1040B000BB1FA617B70710F0A61BB70B881F991FC9
:1040C0005A95A9F780959095BC01CD010895505857
:1040D000BB27AA270E947F200C94871F0E94791F6C
:1040E00038F00E94801F20F039F49F3F19F426F425
:1040F0000C94761F0EF4E095E7FB0C94701FE92FEB
:104100000E94981F58F3BA17620773078407950730
:1041100020F079F4A6F50C94BA1F0EF4E0950B2E5E
:10412000BA2FA02D0B01B90190010C01CA01A00109
:104130001124FF27591B99F0593F50F4503E68F164
:104140001A16F040A22F232F342F4427585FF3CFA5
:10415000469537952795A795F0405395C9F77EF476
:104160001F16BA0B620B730B840BBAF09150A1F0BF
:10417000FF0FBB1F661F771F881FC2F70EC0BA0F45
:10418000621F731F841F48F4879577956795B795CD
:10419000F7959E3F08F0B0CF9395880F08F09927C8
:1041A000EE0F9795879508950E94E8200C94871F3D
:1041B0000E94801F58F00E94791F40F029F45F3F51
:1041C00029F00C94701F51110C94BB1F0C94761F96
:1041D0000E94981F68F39923B1F3552391F3951B1F
:1041E000550BBB27AA2762177307840738F09F5F18
:1041F0005F4F220F331F441FAA1FA9F335D00E2E85
:104200003AF0E0E832D091505040E695001CCAF7F1
:104210002BD0FE2F29D0660F771F881FBB1F2617B4
:1042200037074807AB07B0E809F0BB0B802DBF018B
:10423000FF2793585F4F3AF09E3F510578F00C945A
:10424000701F0C94BB1F5F3FE4F3983ED4F3869538
:1042500077956795B795F7959F5FC9F7880F911D7B
:104260009695879597F90895E1E0660F771F881F67
:10427000BB1F621773078407BA0720F0621B730B1A
:10428000840BBA0BEE1F88F7E09508950F931F93E8
:10429000CF93DF938230910510F482E090E0E091BB
:1042A000C905F091CA0520E030E0A0E0B0E0309709
:1042B00019F1408151810281138148175907C8F0D3
:1042C0008417950769F4109731F012960C931297A2
:1042D00013961C9327C00093C9051093CA0522C0EA
:1042E0002115310519F04217530718F49A01BD0141
:1042F000EF01DF01F801DBCF21153105F9F0281BB3
:10430000390B2430310580F48A819B816115710558
:1043100021F0FB019383828304C09093CA058093AC
:10432000C905FE01329644C0FE01E20FF31F8193DE
:10433000919322503109398328833AC02091C705CF
:104340003091C805232B41F42091180130911901B7
:104350003093C8052093C7052091160130911701AD
:104360002115310541F42DB73EB740911A01509106
:104370001B01241B350BE091C705F091C805E2171E
:10438000F307A0F42E1B3F0B2817390778F0AC0178
:104390004E5F5F4F2417350748F04E0F5F1F509355
:1043A000C8054093C7058193919302C0E0E0F0E017
:1043B000CF01DF91CF911F910F910895CF93DF939C
:1043C000009709F481C0FC01329713821282A091F8
:1043D000C905B091CA05109781F420813181820FFF
:1043E000931F2091C7053091C8052817390751F54B
:1043F000F093C805E093C70567C0ED0120E030E009
:10440000CE17DF0740F44A815B819E0141155105BB
:10441000F1F0EA01F5CFD383C28340815181840F4B
:10442000951FC817D90759F488819981840F951F62
:104430000296918380838A819B8193838283211555
:10444000310529F4F093CA05E093C9053DC0E9019F
:10445000FB83EA8349915991C40FD51FEC17FD07DF
:1044600061F480819181840F951F0296E9019983FF
:104470008883828193819B838A83E0E0F0E01296B7
:104480008D919C911397009719F0FD01DC01F7CFF6
:104490008D919C9111979D012E5F3F4F820F931F2D
:1044A0002091C7053091C8052817390769F430975E
:1044B00029F41092CA051092C90502C01382128213
:1044C000B093C805A093C705DF91CF910895A0E0F0
:1044D000B0E0EDE6F2E20C94E41FEC01009721F469
:1044E000CB010E944621B4C0FC01E60FF71F9C01DE
:1044F00022503109E217F30708F4A8C0D9010D9141
:104500001C91119706171707B0F00530110508F434
:104510009BC0C80104978617970708F495C00250FE
:104520001109061B170B019311936D937C93CF0117
:104530000E94DE2189C05B01A01AB10A4C01800EE5
:10454000911EA091C905B091CA05612C712CE12C76
:10455000F12C109709F446C08D919C911197A815E4
:10456000B905B1F56C0142E0C40ED11CCA14DB04DC
:1045700078F14C018A189B08640142E0C40ED11CFA
:104580001296BC9012971396AC91B5E0CB16D1045D
:1045900040F0B282A38391828082D9016D937C9393
:1045A00009C00E5F1F4F800F911FF9019183808317
:1045B000EB2DFA2FE114F10431F0D7011396FC939F
:1045C000EE93129741C0F093CA05E093C9053CC031
:1045D0006816790608F43C017D0112960D90BC9195
:1045E000A02DB7CF8091C7059091C8058816990670
:1045F000E1F466167706C8F48091160190911701D0
:10460000009741F48DB79EB740911A0150911B015C
:10461000841B950BE817F907C8F4F093C805E093DD
:10462000C705F901718360830FC0CB010E94462149
:104630007C01009759F0A801BE010E943A23CE01E7
:104640000E94DE21C70104C0CE0102C080E090E0DC
:10465000CDB7DEB7EEE00C94002081E090E0F89456
:104660000C9464239111089581568A5108F4805264
:1046700085580895FB01DC0102C001900D92415064
:104680005040D8F70895FC018191861721F08823C6
:10469000D9F7992708953197CF010895FB01DC01DF
:1046A00001900D920020E1F70895FB01DC014150DB
:1046B000504048F001900D920020C9F701C01D92B2
:1046C00041505040E0F7089510E0C8EED0E004C03B
:1046D000FE010E944D202196C93ED107C9F7F894EA
:0246E000FFCF0A
:1046E200FFFFFFFF00E100000000000013011301C3
:1046F2001301130113010000CB05200000C18081CA
:10470200000000000000003D02AB01D50189020655
:1047120002E401F80100000000B502E4036A04CBE0
:1047220002D60292046E04000000007C034F03AC28
:1047320003CA0F47033303240300000000CB0FAB6F
:1047420001AC03CA0F1B1033109B0A6465737472A9
:0A4752007563746F72000D0A000019
:00000001FF
